:100000000C9428040C945B1B0C94341B0C940D1B57
:100010000C94E61A0C9450040C9450040C94BF1ADF
:100020000C9450040C9450040C942B150C940A1648
:100030000C9450040C9450040C9450040C945004F0
:100040000C9450040C9450040C9450040C945004E0
:100050000C9450040C9450040C9450040C94751A95
:100060000C9450040C9450040C9450040C945004C0
:100070000C9450040C9450040C9450040C945004B0
:100080000C9450040C9450040C9450040C945004A0
:100090000C9450040C9450040C9450040C94500490
:1000A0000C9450040C9450040C9450049D14A0140F
:1000B0008F1493149914C114C114C114A414A81456
:1000C000AC14B214B614C114BC14084AD73B3BCECE
:1000D000016E84BCBFFDC12F3D6C74319ABD568347
:1000E0003DDA3D00C77F11BED9E4BB4C3E916BAAFF
:1000F000AABE000000803F08000000BE9224491202
:100100003EABAAAA2ABECDCCCC4C3E00000080BE9D
:10011000ABAAAAAA3E00000000BF000000803F007A
:1001200000000000084178D3BB4387D1133D190E6E
:100130003CC3BD4282AD2B3E68EC8276BED98FE1D6
:10014000A93E4C80EFFFBE01C4FF7F3F00000000CE
:10015000000052554E4E494E47007B4E4F20202006
:100160005945537D0053544F50004E4F4D454D005F
:100170004F4B005B635D2064656574656500763197
:100180002E302020323031380041204F205300578C
:100190007365740057415443480054585400544FF9
:1001A000524348005445524D0053737300536C69D9
:1001B000740053666E0050792F6E00507377617033
:1001C0000050737562005073746F70005072756EDA
:1001D00000507073650050704200506E6F70005098
:1001E0006E616D650050696D700050676F746F00CF
:1001F00050657870005065646974004F4646004B46
:10020000424400496E756D0049636861720049623D
:10021000797465004674616E68004674616E0046CC
:1002200073776170004673756D004673746F004696
:10023000737461740046737172740046736F6C76E8
:10024000004673696E68004673696E004673686F96
:10025000770046736176650046726F74004672637C
:100260006C0046707573680046706F7700464C529C
:1002700000466C6E0046696E760046696E740046F4
:1002800067617573004665787000464545004663B2
:100290006F73680046636F730046636C7800466353
:1002A0006873004663650046626174740046617459
:1002B0006E6800466174616E004661736E68004648
:1002C0006173696E0046616E6E75004661637368A6
:1002D000004661636F7300463E3D00463E00463D6A
:1002E00000463C3E00463C3D00463C004632720023
:1002F000463270004632686D730046326800462F01
:1003000000462D00462B00462A0046210044666D1B
:1003100074004400437361766500436C6F61640050
:1003200043414C43004273686F77004270726E74B1
:100330000042636C7200427D4600423246006162B8
:100340006F75740089017E01730170016A01650196
:100350005A0152013E033A03360331032B032503AE
:1003600020031A03140312030D030A0307030403F3
:100370000103FE02FA02F402F002EC02E902E502D5
:10038000E102DE02DB02D702D102CB02C502BF02CC
:10039000B902B302AD02A702A3029E02990294021F
:1003A0008E028A0285027F027A02750271026D0254
:1003B000680262025D02580252024C024702410288
:1003C0003B0235022F022A0225021F021A021402E2
:1003D0000E0208020302FF01FB01F501F001EA0130
:1003E000E501DF01DA01D601D101CC01C601C1016D
:1003F000BB01B601B201AD01A901A4019E019A01A0
:1004000094018F01D5F08D14A1C881CFD9F1AF200F
:100410000000000000240027002A002D00300065A5
:10042000786974006D696E69636F6D202D62203983
:10043000363030202D44202F6465762F7474794136
:10044000434D30202D43207072672E616F7300651D
:1004500078697400636174207072672E616F732015
:100460003E202F6465762F74747941434D300065CA
:1004700063686F202D6E6520275C78276070726935
:100480006E746620272578272024287763202D6323
:10049000203C207072672E616F732960207C20647D
:1004A0006420636F6E763D6E6F7472756E6320624A
:1004B000733D3120636F756E743D31206F663D7002
:1004C00072672E616F730000000000250028002B6A
:1004D000002E003100000000002300260029002C1F
:1004E000002F0004040404040304050202020204B1
:1004F00003020202020606060606060404020202BF
:100500000404040802011040804010204080408014
:100510000802040180402010020110801020404099
:10052000200000000200090F0000030401000C007D
:1005300000000000000000000000000000000000BB
:10054000080B00020202010009040000010202007F
:100550000005240010010524010101042402060500
:100560002406000107058103100040090401000270
:100570000A00000007050202400000070583024050
:1005800000000403090441726475696E6F204C4CCD
:10059000430041726475696E6F204D6963726F002C
:1005A00012010002000000404123378000010102D7
:1005B000030112010002EF020140412337800001D4
:1005C00001020301000000000000002F00000007EE
:1005D000000700147F147F142E2A7F2A3A626408D1
:1005E000132336495522500007030000001C224106
:1005F000000041221C0014083E081408083E0808A8
:100600000000E060000808080808006060000020A2
:10061000100804027F4149417F00007F00007949B2
:1006200049494F414949497F0F0808087F4F4949C7
:1006300049797F49494979010101017F7F49494948
:100640007F4F4949497F003636000000763600006A
:100650000814224100141414141400412214080335
:100660000159090F7B4979417F7F0909097F7F493A
:10067000494F787F414141407F4141633E7F494935
:1006800049417F090909017F414949797F080808E3
:100690007F00007F0000404040407F7F08080F78C7
:1006A0007F404040407F0107017F7F017F407F7F87
:1006B0004141417F7F0909090F7F4171417F7F09D6
:1006C00009790F4F4949497801017F01017F404075
:1006D000407F1F7040701F7F4070407F780F080F71
:1006E000780F0878080F71515D4547007F41410040
:1006F00002040810200041417F000402010204406E
:100700004040404004BEBFBE04705454547C7F44FB
:1007100044447C7C444444407C4444447F7C545462
:10072000541C087F0901003CA4A4A4FC7F04040419
:100730007C00007D0000008080FA007F101C7000AB
:10074000007F4040007C041C047C7C0404047C7C0E
:100750004444447CFC2424243C3C242424FC7C0489
:100760000404005C54545470047F4440007C4040B6
:10077000407C047C407C047C4070407C701C101CDD
:10078000703CA0A0A0FC745454545C081C3E7F0034
:100790000000FF0000007F3E1C08077F017F010072
:1007A000000000000000002A2B28000000000000CC
:1007B0000000000000000000000000000000002C0D
:1007C0009EB4A0A1A2A434A6A7A5AE362D37382783
:1007D0001E1F20212223242526B333B62EB7B89F0F
:1007E0008485868788898A8B8C8D8E8F9091929351
:1007F0009495969798999A9B9C9D2F3130A3AD35EF
:100800000405060708090A0B0C0D0E0F1011121330
:100810001415161718191A1B1C1DAFB1B0B5000519
:10082000010906A1018502050719E029E715002540
:10083000017501950881029501750881039506757A
:1008400008150025650507190029658100C0F432E7
:1008500011241FBECFEFDAE0DEBFCDBF12E0A0E073
:10086000B1E0EAECFEE602C005900D92AE32B107AF
:10087000D9F726E0AEE2B2E001C01D92A137B2077F
:10088000E1F714E0C8E2D4E004C02197FE010E9421
:10089000D133C732D107C9F70E94F7220C946337CE
:1008A0000C940000809188058A3009F081E08093E3
:1008B000750389E08093880508959091840581E00F
:1008C000891B8093840584E08093850508950895AD
:1008D00081E08093750385E080938805809374039D
:1008E000089508950895209184054FEF249F900165
:1008F000112480E090E0FC01EA58FC4F428150EE68
:10090000540F5F3530F4F901E81BF90BEA57FC4F3F
:10091000418301978D3F4FEF940769F7089508953C
:1009200081E0809370038093750386E0809388054F
:1009300084E080938505089510923A038FEF8093A9
:100940003B0380E18093390383E08093750382E069
:10095000809388050895809188058A3009F081E0A8
:100960008093750382E08093880590E390933A0327
:1009700089E380933B0383E08093390380913F03B5
:1009800080538A3010F090933F030895809188053A
:100990008A3009F081E08093750382E080938805B6
:1009A00090E290933A038EE780933B038AE0809332
:1009B000390380913F0380528F3510F090933F03AD
:1009C0000895809188058A3009F081E0809375034D
:1009D00082E08093880510923A038FEF80933B0367
:1009E00080E1809339030895EFE5F3E08081918100
:1009F000A281B3814481558166817781408351838F
:100A00006283738384839583A683B78308958F92CB
:100A10009F92AF92BF92CF92DF92EF92FF92CF93CD
:100A2000DF93CFE5D3E0C880D980EA80FB80A701BF
:100A300096016091CA057091CB058091CC0590918B
:100A4000CD050E9406346093CA057093CB05809350
:100A5000CC059093CD058C809D80AE80BF80A50194
:100A600094016091D2057091D3058091D405909145
:100A7000D5050E9406346093D2057093D305809308
:100A8000D4059093D505A7019601C701B6010E9430
:100A90008C369B01AC016091CE057091CF058091A1
:100AA000D0059091D1050E9406346093CE057093D5
:100AB000CF058093D0059093D105A5019401C7017E
:100AC000B6010E948C369B01AC016091D6057091F5
:100AD000D7058091D8059091D9050E94063460937E
:100AE000D6057093D7058093D8059093D90560916A
:100AF000DC056F5F6093DC0570E080E090E00E94B1
:100B00004E35688379838A839B83DF91CF91FF90F1
:100B1000EF90DF90CF90BF90AF909F908F9008950F
:100B200080915F0390916003A0916103B091620393
:100B30008093310290933202A0933302B093340237
:100B40000895CF93DF93CFE5D3E0288139814A819F
:100B50005B8160E070E080E89FE30E94A6346883D8
:100B600079838A839B83DF91CF91089510925F03ED
:100B70001092600310926103109262030895EFE5F2
:100B8000F3E080819181A281B381B0588083918309
:100B9000A283B3830895CF93C09185052C2F30E0B5
:100BA000E09184058FEFE89FF0011124EA57FC4F94
:100BB000808190E0029728173907BCF420916303E5
:100BC00030916403409165035091660360915F0327
:100BD0007091600380916103909162030E942736B7
:100BE00087FD03C0CE5FC0938505CF910895CF9355
:100BF000C09185052C2F30E0E09184058FEFE89FB0
:100C0000F0011124EA57FC4F808190E002972817E9
:100C10003907BCF42091630330916403409165036C
:100C20005091660360915F0370916003809161034E
:100C3000909162030E94273618161CF4CE5FC09371
:100C40008505CF910895CF93C09185052C2F30E075
:100C5000E09184058FEFE89FF0011124EA57FC4FE3
:100C6000808190E0029728173907BCF42091630334
:100C700030916403409165035091660360915F0376
:100C80007091600380916103909162030E94A1348E
:100C9000811103C0CE5FC0938505CF910895CF9396
:100CA000C09185052C2F30E0E09184058FEFE89FFF
:100CB000F0011124EA57FC4F808190E00297281739
:100CC0003907BCF4209163033091640340916503BC
:100CD0005091660360915F0370916003809161039E
:100CE000909162030E94A134882319F0CE5FC093D3
:100CF0008505CF910895CF93C09185052C2F30E0C5
:100D0000E09184058FEFE89FF0011124EA57FC4F32
:100D1000808190E0029728173907BCF42091630383
:100D200030916403409165035091660360915F03C5
:100D30007091600380916103909162030E94A134DD
:100D400018161CF0CE5FC0938505CF910895CF9300
:100D5000C09185052C2F30E0E09184058FEFE89F4E
:100D6000F0011124EA57FC4F808190E00297281788
:100D70003907BCF42091630330916403409165030B
:100D80005091660360915F037091600380916103ED
:100D9000909162030E94A13487FF03C0CE5FC0938D
:100DA0008505CF9108954F925F926F927F928F92B7
:100DB0009F92AF92BF92CF92DF92EF92FF92CF932A
:100DC000DF93CFE5D3E0C880D980EA80FB80C701FC
:100DD000B6010E941835072E000C880B990B0E9453
:100DE00050354B015C019B01AC01C701B6010E946B
:100DF000053420E030E040E752E40E948C366B017D
:100E00007C010E941835072E000C880B990B0E945C
:100E100050352B013C0120E030E048EC52E40E94C8
:100E2000A6349B01AC01C501B4010E9406344B01FC
:100E30005C01A3019201C701B6010E94053420E0C4
:100E400030E040E752E40E948C3620E030E44CE190
:100E500056E40E94A6349B01AC01C501B4010E9476
:100E60000634688379838A839B83DF91CF91FF90D7
:100E7000EF90DF90CF90BF90AF909F908F907F903A
:100E80006F905F904F9008954F925F926F927F9214
:100E90008F929F92AF92BF92CF92DF92EF92FF928A
:100EA000CF93DF93CFE5D3E0488059806A807B8081
:100EB000C301B2010E941835072E000C880B990B54
:100EC0000E9450354B015C0120E030E048EC52E4D8
:100ED000C301B2010E948C366B017C01A501940113
:100EE000C301B2010E94053420E030E048EC52E436
:100EF0000E948C360E941835072E000C880B990B27
:100F00000E94503520E030E040E752E40E94A634D1
:100F10009B01AC01C501B4010E9406344B015C0188
:100F2000C701B6010E941835072E000C880B990BDB
:100F30000E9450359B01AC01C701B6010E940534E7
:100F400020E030E048EC52E40E948C3620E030E0B3
:100F500041E655E40E94A6349B01AC01C501B401F1
:100F60000E940634688379838A839B83DF91CF91C3
:100F7000FF90EF90DF90CF90BF90AF909F908F90B9
:100F80007F906F905F904F90089581E080937503FC
:100F90008093700384E08093880582E490E09093CE
:100FA0003703809336030895E6E7F3E080E18E0F80
:100FB00011928E13FDCF089508958EBD00000DB4DB
:100FC00007FEFDCF08950F931F93A0917703A831DB
:100FD00078F4B0E020E83EEE46E350E00E94E633CD
:100FE0006093890570938A0580938B0590938C0597
:100FF000209176032B33D8F430E0A0E6BAEE0E94BD
:10100000D7330091890510918A0520918B05309185
:101010008C05DC01CB01800F911FA21FB31F8093B1
:10102000890590938A05A0938B05B0938C050E9447
:1010300020210E9420210E94961960938D057093B3
:101040008E0580938F059093900588E080938805A6
:101050001F910F9108950E94912188E08093880547
:10106000089580918405682F70E02FEF829FF00132
:101070001124EA57FC4F40812FEF829FC0011124B9
:1010800020E030E050E0241760F4F901E80FF91F88
:10109000EA57FC4FE081EB3709F451E02F5F3F4FF7
:1010A000F2CF5093380351111DC02FEF269FC0017E
:1010B000279F900D1124DC01AA57BC4FFD01019020
:1010C0000020E9F73197EA1BFB0BEF3FF10550F4E5
:1010D00021E0240F2C93840F911DFC01EA57FC4F53
:1010E0008BE7808381E08093700387E0809388059D
:1010F000089580917603853050F0809300010E941E
:1011000020216091000181E090E00C94111D089570
:101110000F931F93CF93DF9300E413E0C2E0D0E07E
:1011200060917603CE010E94111D80917603F80133
:1011300081938F010E9420212196C630D10581F72D
:10114000DF91CF911F910F91089560E082E490E0CC
:101150000E94111D82E490E0909337038093360340
:10116000089584E08093850581E0809375038AE08B
:1011700080938805109286050C940722809188053B
:101180008A3009F081E0809375038BE080938805B5
:1011900081E08093730380915F0390916003A0913D
:1011A0006103B091620380935B0390935C03A0930F
:1011B0005D03B0935E0310926F030C94072280913D
:1011C00088058A3009F081E0809375038CE0809374
:1011D000880581E08093720320916303309164035A
:1011E000409165035091660320935203309353035B
:1011F000409354035093550360915F0370916003D3
:1012000080916103909162036093AB057093AC058C
:101210008093AD059093AE050E94053420E030E048
:1012200040E05FE30E948C3620E030E040E251E491
:101230000E94A63460934E0370934F038093500333
:101240009093510310925603109257031092580333
:101250001092590310926F030C94072268EE73E00A
:1012600080E090E00C94A0180F931F93CF93DF932E
:1012700062E887E596E00E94041C62EC87E596E050
:101280000E94041C68EC70E080E090E00E94A018CE
:101290000E94C8228FE694E00E94D62260EB87E588
:1012A00096E00E946E1C84E594E00E94D62260EBDA
:1012B00087E596E00E946E1C8EEE95E00E946B140E
:1012C00018161906CCF7C0918405D0E08EEE95E093
:1012D0000E94E9149FEF9C9FF0019D9FF00D112447
:1012E000EA57FC4F808311E00FEFC09184050C9FFB
:1012F000E0011124FE01EA57FC4F8081181758F4D1
:101300008EEE95E00E94E914C10FD11DCA57DC4F43
:1013100088831F5FEACF8FE494E00E94D62260EBBF
:1013200087E596E00E946E1C81E08093750385E05E
:101330008093880583E080937403DF91CF911F91A0
:101340000F910895CF93DF9362E887E596E00E94BE
:10135000041C62EC87E596E00E94041C68EC70E0D7
:1013600080E090E00E94A0180E94C82284E294E0ED
:101370000E94D62268EC70E080E090E00E94A01805
:10138000C0E0DFEF80918405D89FC0011124FC01EB
:10139000EA57FC4F2081C21760F48C0F911DFC01AD
:1013A000EA57FC4F60818EEE95E00E944A14CF5FB1
:1013B000E9CF68EC70E080E090E00E94A01860E85F
:1013C00087E596E00E94041C61E687E596E00E94AE
:1013D000041C68EC70E080E090E00E94A0180E947D
:1013E000C82261E787E596E00E946E1C60EB87E506
:1013F00096E00E946E1C62E370E080E090E00E9444
:10140000A0188FE194E00E94D62260EB87E596E079
:101410000E946E1C81E08093750385E080938805AF
:1014200083E080937403DF91CF9108950E94E21FBF
:101430008091310290913202A0913302B091340236
:1014400080935F0390936003A0936103B093620362
:1014500008950C94E21F4F925F926F927F928F9249
:101460009F92AF92BF92CF92DF92EF92FF920F9333
:101470001F93CF93DF93CDB7DEB728970FB6F894BD
:10148000DEBF0FBECDBF0E94E21F8090CA059090C4
:10149000CB05A090CC05B090CD058091D205909160
:1014A000D305A091D405B091D50589839A83AB83E8
:1014B000BC836091DC0570E080E090E00E945035D4
:1014C0006B017C0129813A814B815C81C501B401AA
:1014D0000E948C36A70196010E94A6349B01AC01A4
:1014E0006091D6057091D7058091D8059091D90566
:1014F0000E9405342B013C01A5019401C501B401F2
:101500000E948C36A70196010E94A6349B01AC0173
:101510006091CE057091CF058091D0059091D10555
:101520000E9405349B01AC01C301B2010E94A634A4
:101530002B013C01A701960169817A818B819C81F5
:101540000E94A63469837A838B839C83A5019401CE
:10155000C301B2010E948C36A70196010E94A634F5
:101560004B015C010FE513E0D801CD90DD90ED90CB
:10157000FC909B01AC0169817A818B819C810E94E6
:1015800005346D837E838F839887A7019601C301FD
:10159000B2010E948C369B01AC016D817E818F81EE
:1015A00098850E940634F801648375838683978347
:1015B00029813A814B815C81C701B6010E940534C3
:1015C000A50194010E940634A30192010E94A63451
:1015D000D8016D937D938D939C93139728960FB6A6
:1015E000F894DEBF0FBECDBFDF91CF911F910F9159
:1015F000FF90EF90DF90CF90BF90AF909F908F9033
:101600007F906F905F904F9008950E94E21F8091AD
:1016100064008E7F809364008EE580937C0062E09E
:1016200070E080E090E00E94A01880917A008064D1
:1016300080937A0080917A0086FDFCCF80916400CF
:101640008160809364002091780030917900032EAE
:10165000000C440B550B60E070E381E190E00E94C8
:10166000B233CA01B9010E94503520E030E04AE7A8
:1016700054E40E94A63460935F03709360038093E8
:1016800061039093620308950E94E21F60917603C4
:1016900070E080E090E00E944E3560935F037093AD
:1016A000600380936103909362030C9420214F9216
:1016B0005F926F927F928F929F92AF92BF92CF92E2
:1016C000DF92EF92FF92CF93DF930E94E21FC090D0
:1016D000CA05D090CB05E090CC05F090CD05C09127
:1016E000DC05D0E0BE010D2E000C880B990B0E948A
:1016F00050354B015C01A7019601C701B6010E945C
:101700008C36A50194010E94A6349B01AC01609126
:10171000CE057091CF058091D0059091D1050E94A2
:1017200005342B013C01BE0161507109072E000CEC
:10173000880B990B0E9450359B01AC01C301B2018B
:101740000E94A6340E94AA1FCFE5D3E06C837D835C
:101750008E839F83A5019401C701B6010E94A63420
:10176000688379838A839B83DF91CF91FF90EF9089
:10177000DF90CF90BF90AF909F908F907F906F90B1
:101780005F904F900895CF92DF92EF92FF92C090BA
:101790005F03D0906003E0906103F090620320E06B
:1017A00030E0A901C701B6010E942736181664F47B
:1017B000C701B6010E94AA1F60935F037093600384
:1017C0008093610390936203FF90EF90DF90CF903E
:1017D0000895CF93DF93CFE5D3E021EE3EE245E6D7
:1017E00052E4688179818A819B810E94A63440E01D
:1017F0000E94FB1E688379838A839B83DF91CF914C
:101800000895CF93DF93CFE5D3E0688179818A8112
:101810009B8141E00E94FB1E688379838A839B83BE
:1018200081E080935A03DF91CF9108956FE573E0D3
:1018300086E090E00E94B71C63E673E08AE090E0E7
:101840000E94B71C67E673E08EE090E00E94B71C30
:101850006BE673E082E190E00E94B71C61E372E006
:1018600086E190E00C94B71C60915F037091600377
:1018700080916103909162030E9418356A30B8F438
:101880002CE0E3E6F3E0AFE5B3E001900D922A959A
:10189000E1F77727CB01880F991F880F991F6FE514
:1018A00073E04A960E94B71C81E080935A03089522
:1018B000CF93DF93CFE5D3E0488159816A817B8163
:1018C0008CE0E3E6F3E0DE0101900D928A95E1F70A
:1018D0004C875D876E877F87DF91CF910895CF9387
:1018E000DF93CFE5D3E0288139814A815B816C8128
:1018F0007D818E819F810E94A634688379838A834B
:101900009B83DF91CF910C94DA1FCF93DF93CFE5C8
:10191000D3E0288139814A815B816C817D818E8110
:101920009F810E940534688379838A839B83DF913A
:10193000CF910C94DA1FCF93DF93CFE5D3E02C81C6
:101940003D814E815F81688179818A819B810E947E
:101950000634688379838A839B83DF91CF910C94CB
:10196000DA1F0E94010C0E94E21F0E94E21F0E94E7
:10197000A1050E94BF050E949B0C0E94F4040E94D6
:10198000E21F0E94A1050E949B0C0C946F0CCF9348
:10199000DF930E94010C0E94E21F0E94A1050E9499
:1019A000BF050E949B0CCFE5D3E020E030E040E093
:1019B0005FE3688179818A819B810E948C3668838C
:1019C00079838A839B83DF91CF910895CF93DF93AF
:1019D0000E94010C0E94E21F0E94A1050E949B0C24
:1019E000CFE5D3E020E030E040E05FE3688179813B
:1019F0008A819B810E948C36688379838A839B834A
:101A0000DF91CF910895CF93DF93CFE5D3E02C8181
:101A10003D814E815F81688179818A819B810E94AD
:101A20008C36688379838A839B83DF91CF910C9472
:101A3000DA1FCF93DF930E94E90B0E94E21F0E94FE
:101A4000E21F0E94030D0E94BF05CFE5D3E020E016
:101A500030E040E85FE3688179818A819B810E9460
:101A60000634688379838A839B830E94C30B0E9418
:101A7000A105DF91CF910C94030DCF93DF930E94CA
:101A8000E21F0E94E21F0E94E21F0E94030D0E94BB
:101A9000030DCFE5D3E029E23CE54FE85DE3688143
:101AA00079818A819B810E948C36688379838A83BD
:101AB0009B830E94BF050E94F4042DEC3CEC4CEC8F
:101AC0005FE3688179818A819B810E948C3668837B
:101AD00079838A839B830E94BF050E949B0C0E948E
:101AE000010C20E030E040E85FE3688179818A8181
:101AF0009B810E940634688379838A839B830E943A
:101B0000A1050E94F4040E94E21F0E94030D0E949E
:101B1000BF0520E030E040E05FE3688179818A81A1
:101B20009B810E948C36688379838A839B830E9481
:101B3000010C2AE232E44CEC5EE3688179818A810F
:101B40009B810E948C36688379838A839B83DF9193
:101B5000CF910895CF93DF930E94E90B0E94E21F7B
:101B60000E94030D0E94BF05CFE5D3E020E030E0E6
:101B700040E85FE3688179818A819B810E94063415
:101B8000688379838A839B83DF91CF910C94C30B05
:101B9000CF93DF930E94F4040E94E90B0E94E21F9E
:101BA0000E94E21F0E94030D0E94BF05CFE5D3E013
:101BB00020E030E040E85FE3688179818A819B81A1
:101BC0000E940634688379838A839B830E94C30BB7
:101BD0000E94580C0E94030D0E94580C0E94030D95
:101BE0000E94F404DF91CF910C94580CCF93DF93B3
:101BF000CFE5D3E06C817D818E819F810E94443648
:101C0000288139814A815B810E948C3641E00E94A3
:101C1000FB1E688379838A839B83DF91CF910C9429
:101C2000DA1FCF93DF930E94F4040E94E21F0E9408
:101C3000E21F0E94580C0E94580CCFE5D3E020E030
:101C400030E040E85FE3688179818A819B810E946E
:101C50000634688379838A839B830E94F4040E94FC
:101C6000F60D0E94A1050E94BF0520E030E040E88B
:101C70005FE3688179818A819B810E940634688351
:101C800079838A839B830E94F404DF91CF910C9423
:101C90006F0CCF93DF93CFE5D3E0688179818A81A0
:101CA0009B810E944436688379838A839B83DF917A
:101CB000CF910895CF93DF930E94E21F0E94E21F0D
:101CC000CFE5D3E020E030E040E85FE36881798150
:101CD0008A819B810E940634688379838A839B83EF
:101CE0000E94F4040E94BF0520E030E040E85FE37A
:101CF000688179818A819B810E9406346883798317
:101D00008A839B830E946F0C0E94C30BDF91CF914B
:101D10000C94490ECF93DF930E94E21F0E94E21FB2
:101D20000E94030DCFE5D3E020E030E040E85FE320
:101D3000688179818A819B810E94063468837983D6
:101D40008A839B830E94C30B0E949B0CDF91CF91DF
:101D50000C94490ECF93DF930E94E21F0E94E21F72
:101D60000E94030DCFE5D3E020E030E040E85FE3E0
:101D7000688179818A819B810E9405346883798397
:101D80008A839B830E94C30B0E949B0CDF91CF919F
:101D90000C94490ECF93DF93CFE5D3E020E030E001
:101DA00040E85FE3688179818A819B810E940634E3
:101DB000688379838A839B830E94E21F0E94E21FCB
:101DC0000E94A1050E94010C0E94E21F0E94A10531
:101DD0000E94BF050E949B0C20E030E040E05FE3E2
:101DE000688179818A819B810E948C36688379839E
:101DF0008A839B830E94030D0E94F4040E94E21FC9
:101E000080E090E0A0ECB0E488839983AA83BB8350
:101E10000E94F60D20E030E84AE454E468817981BC
:101E20008A819B810E948C36688379838A839B8315
:101E30000E94A1050E949B0C0E94490E0E94030D66
:101E400020E030E040E05FE3688179818A819B8116
:101E50000E948C36688379838A839B830E94F40472
:101E60000E94BF050E949B0C0E94580C0E94580CB7
:101E70000E94490E0E94F40420E030E040E05FE35D
:101E8000688179818A819B810E9405346883798386
:101E90008A839B830E94030D0E949B0C2EE83FE3E4
:101EA0004BE65FE3688179818A819B810E940634D9
:101EB000688379838A839B83DF91CF910C94010C93
:101EC0008F929F92AF92BF92CF92DF92EF92FF924A
:101ED000C0905F03D0906003E0906103F0906203D4
:101EE00020E030E048E152E4C701B6010E94A1348D
:101EF00018163CF18090630390906403A0906503F2
:101F0000B0906603C701B6010E941835862F0E9463
:101F1000B51F9B01AC01C501B4010E948C366093D2
:101F20005F03709360038093610390936203FF905B
:101F3000EF90DF90CF90BF90AF909F908F900C94D8
:101F4000DA1FFF90EF90DF90CF90BF90AF909F90FF
:101F50008F9008958F929F92AF92BF92CF92DF920F
:101F6000EF92FF92CF938091DB058823E1F1C0903F
:101F70005F03D0906003E0906103F090620325E975
:101F80003FEB46ED53E3C701B6010E942736181612
:101F90003CF5C091DD05CC2319F18C2F0E94B51FB3
:101FA0004B015C01C150C093DD059B01AC01C70131
:101FB000B6010E948C360E9418352AE030E040E0DD
:101FC00050E00E94B2330E945035A50194010E9456
:101FD000A6349B01AC01C701B6010E94053415C0AF
:101FE0001092DB051AC020E030E040E251E460913D
:101FF0005F037091600380916103909162030E947E
:10200000A6340E9418350E94503560935F03709388
:1020100060038093610390936203CF91FF90EF90F0
:10202000DF90CF90BF90AF909F908F900895CF9307
:10203000DF93CFE5D3E0688179818A819B810E941B
:10204000723421EE3EE245E652E40E948C3668830B
:1020500079838A839B83DF91CF9108950E94E21F49
:102060000E94580C0E94580C0E94F4040E94580CC4
:102070000E94E21F0E94580C0E94F4040E946F0C00
:102080000E9417100E94580C0E94580C0E94030DC9
:102090000E94580C0E94580C0E94030D0E949B0C39
:1020A0000C94C30BCF92DF92EF92FF92CF93DF930A
:1020B000CFE5D3E0C880D980EA80FB80A7019601F4
:1020C000C701B6010E948C369B01AC0160E070E054
:1020D00080E89FE30E9405340E94AA1F9B01AC0187
:1020E000C701B6010E94A6340E94723421EE3EE27E
:1020F00045E652E40E948C36688379838A839B8309
:10210000DF91CF91FF90EF90DF90CF900895CF9324
:10211000DF930E9452100E94BF05CFE5D3E020E07C
:1021200030E044EB52E4688179818A819B810E948E
:102130000634688379838A839B83DF91CF910895E6
:1021400060915F03709160038091610390916203DD
:102150000E9418356A3070F47727CB01880F991FD9
:10216000880F991F6FE573E04A960E94EB1C81E08F
:1021700080935A030895CF9326E733E0F901CE2FD9
:10218000C21B81918111FBCFCF5FEC2FF0E0EB58A8
:10219000FC4F80810E94EA1FC150B9F7CF910C9487
:1021A000D40761E08AE00E94701861E08BE00E9431
:1021B000701861E089E00E9470185D9A289A109268
:1021C000DA0508958091DA05882321F01092DA0566
:1021D0000C94D11081E08093DA0560E08AE00E94DF
:1021E000701860E08BE00E94701860E089E00C9449
:1021F000701880918705882321F0109287050C9430
:10220000D11081E08093870508958C3308F08BE32B
:10221000643008F063E04C3308F04BE3243008F0FE
:1022200023E050E0480F511D261798F090E4699F75
:10223000D0011124982FE92FF0E0E417F5073CF4C2
:10224000EB5CFD4FEA0FFB1F10829F5FF4CF6F5FC7
:10225000EBCF0895633010F470E00FC063E070E0DE
:102260000CC0F901E40FF51FEB5CFD4F10822F5FEE
:102270003F4F20343105A9F78F5F282F30E06217D8
:1022800073074CF0A90196E0440F551F9A95E1F7AA
:1022900020E030E0E6CF089580913C03882331F0C0
:1022A00010923C0361E080E00C942A1181E080935D
:1022B0003C03089580913D03882341F010923D0333
:1022C00010923C0360E080E00C942A1181E080933E
:1022D0003D0380933C03909188059A3019F49093C4
:1022E000750302C08093750382E0809388059BE2AA
:1022F00090933A038AE380933B0384E0809339030D
:1023000080913F038B52803110F090933F030895EA
:1023100080913503882331F01092350361E081E02C
:102320000C942A1181E08093350308950F931F9335
:10233000CF93E6E7F3E080E090E0C82F8C01819135
:10234000882331F0C80101968B309105B1F7CAE0BE
:102350008AE00E942821CC2371F08C2F90E0F801B4
:10236000E81BF90BEE51FA4FDC01AB58BC4F8C91D6
:102370008083C150F0CF60E080E00E942A1160E0CD
:1023800080E00E941722CF911F910F910C94D407E7
:1023900063E082E00E942A11E6E4F3E06591749123
:1023A00082EE95E00E94463762E080E00E941722AC
:1023B000E8E4F3E06591749182EE95E00E9446377F
:1023C00063E080E00E94172281E08093750385E03E
:1023D000809388051092740308955C988EEA0E9499
:1023E000DD078DE80E94DD0780E10E94DD0764E6DD
:1023F00070E080E090E00E94A0185F9808950F932D
:102400001F93CF93DF93FC01222329F0CC973CF05C
:10241000EBE3F0E004C0C79714F0E6E3F0E050E02F
:102420004052510985E0849F8001859F100D112441
:10243000AB016330710514F042E050E086E0440FD8
:10244000551F8A95E1F74E0F5F1F4B5C5D4FC0E053
:10245000D0E03C2FDA0160E070E0FB01E00FF11FFB
:10246000EC53FA4F849190E0032E02C09595879526
:102470000A94E2F7E82FEF70F4E0EF9FC001112417
:102480008E2B8373982F990F892B8575982F990F11
:10249000892B211105C08C9311968C93119704C040
:1024A000FA01E60FF71F80836F5F7F4F129665304A
:1024B000710599F6405C5F4F2496C830D10549F606
:1024C000DF91CF911F910F91089520EE240F2F35AA
:1024D00070F59C01CC9714F02BE330E0CB01643015
:1024E000710514F083E090E056E0880F991F5A952B
:1024F000E1F7820F931F50E04052510925E0249FDD
:10250000B001259F700D112420E030E0F901E60FA5
:10251000F71FEC53FA4FE491D901A80FB91FAB5C38
:10252000BD4FEC932F5F3F4F2530310579F708956C
:10253000BF92CF92DF92EF92FF920F931F93CF93B0
:10254000DF9385E3C82E82E0D82ED4E000E010E0CF
:10255000B02EE12CF12CF601EE0DFF1D808190E0F4
:102560000B2C02C0959587950A94E2F7C82FCF707F
:1025700024E0C29FC00111248C2B8373C82FCC0F81
:102580008C2B8575C82FCC0FC82B8C2F0E94DD0794
:102590008C2F0E94DD078FEFE81AF80A20E4E2167C
:1025A000F104C9F60C5F1F4F0830110589F6D150B0
:1025B00080E4C80ED11CD111C9CFDF91CF911F91FA
:1025C0000F91FF90EF90DF90CF90BF900895E5E3DB
:1025D000F2E0119283E0E533F807D9F70895CF933D
:1025E000C82F5C9881E80E94DD078C2F0E94DD07D0
:1025F0005C9A6C2F80E090E0CF910C94111DCF93EA
:10260000DF931F92CDB7DEB7809176038093AF053D
:1026100089830E94202189810E94EF126091AF0579
:1026200080E090E00F90DF91CF910C94111D1F93EB
:10263000CF93DF9365E070E080E090E00E94A01807
:102640005F9A65E070E080E090E00E94A0185E98DC
:102650005C98C4E0D4E01C2F135FFE0184910E94BB
:10266000DD0721961C13F9CF5C9ADF91CF911F9162
:1026700008950E94171380E090E00E94131D0C94AF
:10268000EF12CF93DF930E94D11080914503811107
:1026900002C00E94ED11EAE0F5E02491EBEEF4E0D7
:1026A00084918823C1F090E0880F991FFC01EF5EB0
:1026B000FB4FC591D491FC01E953FB4FA591B49117
:1026C0009FB7F8943881822F809583238883EC917B
:1026D000E22BEC939FBF2CED37E030931D0120934C
:1026E0001C0180916A008F7C80936A00EE9A83B708
:1026F000817F846083BF83B7816083BF30931D0176
:1027000020931C0180916A008F7C80936A00EE9A6E
:1027100083B7816083BF889583B78E7F83BF83B77C
:102720008E7F83BFEE9882EA99E190931D0180939A
:102730001C010E94391368EC70E080E090E00E9478
:10274000A018DF91CF910C94D1100C9441134091BB
:10275000C7055091C8052091C5053091C60542179F
:102760005307B4F49091E8009570E1F39091E8007C
:1027700092FD19C08093F1008091C7059091C80522
:1027800001968F739927892B19F48EEF8093E800B7
:102790008091C7059091C80501969093C8058093D4
:1027A000C70581E0089580E00895CF92DF92EF920F
:1027B000FF920F931F93CF93DF931F92CDB7DEB796
:1027C000182F062FE42E862F880F8E5F99830E9484
:1027D000A71383E00E94A713F12EC12E9981D92E51
:1027E0008C2D8F19801798F4F601E7FE02C08491B2
:1027F00001C080810E94A713182F80E00E94A713B8
:102800008123FFEFCF1ADF0A8111EACF01C081E0F7
:102810000F90DF91CF911F910F91FF90EF90DF907C
:10282000CF900895615030F02091F100FC01208399
:102830000196F8CF289A84E68093E0050895CF9218
:10284000DF92EF92FF920F931F93CF93DF936C0170
:102850007A018B01C0E0D0E0CE15DF0589F0D80108
:102860006D918D01D601ED91FC910190F081E02DEB
:10287000C6010995892B11F47E0102C02196ECCF87
:10288000C701DF91CF911F910F91FF90EF90DF90E3
:10289000CF900895CF93DF931F92CDB7DEB76983B2
:1028A000DC01ED91FC910280F381E02D41E050E0EC
:1028B000BE016F5F7F4F09950F90DF91CF91089513
:1028C00083E08093E9008091F200882319F08AE385
:1028D0008093E8000895FC018485958597FD0BC0E1
:1028E0009FB7F89482E08093E9008091F2009FBF47
:1028F00090E0019608959FB7F89482E08093E900F4
:102900008091F2009FBF90E0089590E0FC01319724
:10291000EF30F105B0F5EA5AFF4F0C94D1338091B6
:1029200080008F7703C0809180008F7D809380002E
:10293000089580918000877FF9CF84B58F7702C09A
:1029400084B58F7D84BD0895809190008F7707C0F6
:10295000809190008F7D03C080919000877F80934D
:10296000900008958091C0008F7703C08091C000CF
:102970008F7D8093C00008958091C200877F8093EF
:10298000C20008953FB7F8948091B4059091B505C1
:10299000A091B605B091B70526B5A89B05C02F3FFD
:1029A00019F00196A11DB11D3FBFBA2FA92F982F75
:1029B0008827820F911DA11DB11DBC01CD0142E0F0
:1029C000660F771F881F991F4A95D1F708950E94B7
:1029D0000B37CF93DF931F92CDB7DEB7FC01848511
:1029E000958597FD05C02FEF3FEF358724870BC0F6
:1029F000CE0101960E949E22019719F4898190E0F0
:102A000002C08FEF9FEF0F90DF91CF9108950F934A
:102A10001F93CF93DF931F92CDB7DEB78C01FC01DC
:102A20008485958597FF0EC0CE0101960E949E2257
:102A3000019719F4298130E002C02FEF3FEFF80130
:102A400035872487F801848595850F90DF91CF9194
:102A50001F910F9108951F920F920FB60F9211249C
:102A60008F939F938091E1009091E100937F9093E9
:102A7000E10083FF0FC01092E90091E09093EB001A
:102A80001092EC0092E39093ED001092E10598E033
:102A90009093F00082FF20C093E09093E900909122
:102AA000F200992319F09AE39093E8009091C905F8
:102AB000992339F09091C90591509093C9059923B4
:102AC00089F19091E005992339F09091E0059150BA
:102AD0009093E005992341F184FF10C08091E200BA
:102AE0008E7E81608093E2008091E1008F7E8093F2
:102AF000E10080912F028E7E806111C080FF16C0A0
:102B00008091E2008E7E80618093E2008091E100FE
:102B10008E7E8093E10080912F028E7E8160809373
:102B20002F0204C05D98CDCF2898D6CF9F918F916A
:102B30000F900FBE0F901F901895DF92EF92FF92AB
:102B40000F931F93CF93DF93D82E8A017B01E40E5E
:102B5000F51EEB01CE15DF0571F0D7FE03C0FE01B7
:102B6000849101C088810E94A71321968111F2CF20
:102B70008FEF9FEF01C0C801DF91CF911F910F919F
:102B8000FF90EF90DF9008958091BC0581110DC0FA
:102B900082E08093B80584E08093B9051092BB056C
:102BA0001092BA0581E08093BC0588EB95E008950A
:102BB0000F931F93CF93DF931F92CDB7DEB782E0C1
:102BC000898342E450E060E475E080E80E949D154E
:102BD0000E94C415DC0112960D911C9113970115EA
:102BE000110569F0D801ED91FC910280F381E02D8F
:102BF000BE016F5F7F4FC801099597FF07C08981AC
:102C00000F90DF91CF911F910F910895F8010085EA
:102C10001185E5CF1F920F920FB60F921124CF921C
:102C2000DF92EF92FF920F931F932F933F934F9357
:102C30005F936F937F938F939F93AF93BF93EF9324
:102C4000FF93CF93DF93CDB7DEB76C97DEBFCDBFD9
:102C50001092E9008091E80083FFFAC168E0CE019C
:102C600045960E94121482EF8093E8008D8987FFB9
:102C700005C09091E80090FFFCCF03C09EEF9093B9
:102C8000E800982F907609F0C6C09E892F89188D8C
:102C900091110CC0803829F4809130028093F100AA
:102CA00002C01092F1001092F10047C1422F50E093
:102CB000512B913051F4811140C14130510509F03F
:102CC0003CC1809130028D7F0BC0933061F4811143
:102CD00034C14130510509F030C180913002826029
:102CE000809330022AC1953041F48091E80080FF42
:102CF000FCCF20682093E30020C1963009F05FC02C
:102D0000EB8CFC8C1092E9001092C8051092C7055C
:102D1000123091F51092C6051092C5050E94D81583
:102D200099E0BE016F5F7F4FDB01E92F1D92EA95AD
:102D3000E9F799831A8391E09E8390EA98879AEF46
:102D400099872091C7053091C805275F3F4F3C8385
:102D50002B838D831092E9001092C8051092C7054D
:102D6000F092C605E092C50549E050E080E00E947F
:102D70009D150E94D815E1C0F092C605E092C505E8
:102D80000E94C415DC011296ED90FC901397E1149B
:102D9000F10409F4C0C0D701ED91FC910480F581E4
:102DA000E02DBE016B5E7F4FC7010995009719F0BA
:102DB0000CF0C3C0C6C0F701E084F184E8CF9730BF
:102DC00009F4BFC0983021F481E08093F100B5C0D0
:102DD000993009F0B2C0837009F0B3C0E2E0F1E0CD
:102DE00081E021E036E39081992361F08093E9004E
:102DF0002093EB0091919093EC003093ED008F5F66
:102E0000873089F78EE78093EA001092EA008F8975
:102E10008093E10592C08B8D9C8D1092E9001092F9
:102E2000C8051092C7059093C6058093C505898D86
:102E3000811156C08E899D89913A59F4813209F0E9
:102E400080C047E050E06CE071E080E00E949D159A
:102E500074C0913209F075C0833289F4888D90E096
:102E6000982F88272F89822BA0E0B0E0809308015B
:102E700090930901A0930A01B0930B015EC08032C8
:102E800069F48091E80082FFFCCF67E08CE091E07C
:102E90000E9412148BEF8093E80006C0823209F082
:102EA0004CC08F898093130180912E02882319F0E2
:102EB000EEEFFAE002C0E0E0F8E080910C019091C2
:102EC0000D01A0910E01B0910F01803B9440A1052E
:102ED000B10509F088C08091130180FFA0C083C0B4
:102EE0000E94C415DC0112960D911C9113970115D7
:102EF000110539F1D801ED91FC910190F081E02D9F
:102F0000BE016B5E7F4FC8010995811116C0F801A3
:102F100000851185ECCF1130C1F0133091F48F8909
:102F2000882309F455C08230E9F440E86DE082E975
:102F300095E00E94D513882321F08EEF8093E8005E
:102F400087C081E28093EB0083C08B8D9C8D0897B6
:102F500011F41093C4058091C405811136C060EA54
:102F600075E038C0813029F440E86BE086E895E0F0
:102F7000E0CF833031F70E94C415DC011296ED904A
:102F8000FC9013978E010F5F1F4F6801E114F1044D
:102F900079F0D701ED91FC910680F781E02DB80121
:102FA000C7010995080F111DF701E084F184EECFE8
:102FB000D8011C92F60101900020E9F73197BF017A
:102FC0006C197D0940E0C601B4CF62EB75E002C028
:102FD00062E875E06115710509F4B3CFFB01449116
:102FE00050E080E833CF0FB6F894A8958091600048
:102FF000886180936000109260000FBEA895EE3F3C
:103000002AE0F20739F08091FE0A9091FF0A91833D
:10301000808393CF1092FF0A1092FE0A8ECFEE3F6C
:103020008AE0F80731F0808191819093FF0A8093C4
:10303000FE0A87E797E7918380839BE088E10FB6DC
:10304000F894A895809360000FBE9093600075CFB0
:103050006C960FB6F894DEBF0FBECDBFDF91CF9157
:10306000FF91EF91BF91AF919F918F917F916F9160
:103070005F914F913F912F911F910F91FF90EF9092
:10308000DF90CF900F900FBE0F901F901895CF93A9
:10309000DF93282F30E0F901EF5DFA4F8491F901B9
:1030A000EE5FFA4FD491F901ED51FB4FC491CC235F
:1030B00091F081110E948514EC2FF0E0EE0FFF1FBC
:1030C000EB52FB4FA591B491EC91ED2381E090E0A0
:1030D00021F480E002C080E090E0DF91CF9108957C
:1030E0001F93CF93DF93282F30E0F901EF5DFA4F64
:1030F0008491F901EE5FFA4FD491F901ED51FB4F44
:10310000C491CC23C9F0162F81110E948514EC2F95
:10311000F0E0EE0FFF1FE953FB4FA591B4918FB77D
:10312000F894111105C09C91ED2FE095E92302C0A0
:10313000EC91ED2BEC938FBFDF91CF911F91089510
:103140008F929F92AF92BF92CF92DF92EF92FF92B7
:103150006B017C010E94C2144B015C01C114D104BB
:10316000E104F104F1F00E94C214DC01CB018819E2
:103170009909AA09BB09883E9340A105B10570F3DE
:1031800021E0C21AD108E108F10888EE880E83E038
:10319000981EA11CB11CC114D104E104F10419F75B
:1031A000DDCFFF90EF90DF90CF90BF90AF909F90DA
:1031B0008F9008958F929F92AF92BF92CF92DF929D
:1031C000EF92FF920F931F93CF93DF9300D01F9244
:1031D000CDB7DEB7382F8B018091E105811103C097
:1031E0008FEF9FEF7DC080912F0280FF05C08091FF
:1031F000E00082608093E0004A018AEFF82E832F7E
:103200008770E82E9FE3C92E832F8072B82E2AE3A1
:10321000D22E832F8074A82E8114910409F457C0F4
:103220008FB7F894E092E9009091E80095FF05C00F
:103230009091F2002C2D291B01C020E08FBF21119D
:1032400010C0FA94FF2061F261E070E080E090E04D
:1032500039834A835B830E94A01839814A815B814C
:10326000DBCF822F90E0881699060CF4282D6FB7DB
:10327000F894E092E9008091E80085FF26C0822F53
:1032800090E0881A990ABB2029F02150A8F01092EA
:10329000F100FBCFF80137FF07C0215058F07491BF
:1032A0007093F1003196F9CF215020F07191709315
:1032B000F100FACF080F191F8091E80085FF0DC0BB
:1032C0008114910411F4A11008C06FBFA5CF5D9ABD
:1032D00084E68093C905CA0103C0D092E800F5CF07
:1032E0000F900F900F90DF91CF911F910F91FF9052
:1032F000EF90DF90CF90BF90AF909F908F90089508
:10330000CF93DF93EC0180911301882331F083E0A8
:103310000E94DA181816190634F081E090E09B83B9
:103320008A8380E090E0DF91CF9108952FB7F894E1
:103330006091B0057091B1058091B2059091B3058F
:103340002FBF08950895DC01FB0112968C9112970E
:1033500090E02481358182179307D1F49181808197
:10336000813A31F481E0913091F0933089F411C0C9
:10337000813271F49B3021F482811F968C9305C0B9
:103380009A3031F4828150968C9381E008950895AB
:1033900080E00895DC01FB0188E4808389E4818377
:1033A00084E482831D969C911D979F709F5B9383FD
:1033B0001D968D919C911E9724E0969587952A9550
:1033C000E1F78F708F5B848385E00895FC01828133
:1033D0008F5BFB01808381E00895EF92FF920F9352
:1033E0001F93CF93DF93FB012081213851F5238177
:1033F000223239F5DC0112962C9130E0448155815E
:1034000042175307F1F4EC010B851C85E12CF12CDC
:103410000115110591F0F801448155816281738194
:1034200080E80E949D158F3FFFEF9F0769F0E80E2F
:10343000F91ED8010D911C91EBCF81E08F87C70158
:1034400005C080E090E002C08FEF9FEFDF91CF9149
:103450001F910F91FF90EF900895CF93DF93CDB719
:10346000DEB769970FB6F894DEBF0FBECDBFFC0183
:10347000DB018C918F5F8C93BE016F5F7F4F89E181
:10348000DB011D928A95E9F729E0298384E08A838C
:1034900091E09D8383E08E832A8721E22B879C879E
:1034A0009D879F8722E2288B27E02B8B25E02C8BA2
:1034B0008E8B20E430E0388F2F8B998F82818B8325
:1034C00095858685998B8A8B838180688D8B49E170
:1034D00050E080E00E949D1569960FB6F894DEBF1B
:1034E0000FBECDBFDF91CF9108951F920F920FB6FF
:1034F0000F9211242F933F938F939F93AF93BF937A
:103500008091B0059091B105A091B205B091B3053D
:103510003091DF0523E0230F2D3720F40196A11D04
:10352000B11D05C026E8230F0296A11DB11D2093F1
:10353000DF058093B0059093B105A093B205B093D9
:10354000B3058091B4059091B505A091B605B091F1
:10355000B7050196A11DB11D8093B4059093B505E3
:10356000A093B605B093B705BF91AF919F918F918E
:103570003F912F910F900FBE0F901F9018951F92A3
:103580000F920FB60F9211242F933F934F935F9397
:103590006F937F938F939F93AF93BF93EF93FF931B
:1035A000E0911C01F0911D010995FF91EF91BF91F0
:1035B000AF919F918F917F916F915F914F913F91CB
:1035C0002F910F900FBE0F901F9018951F920F9282
:1035D0000FB60F9211242F933F934F935F936F93E6
:1035E0007F938F939F93AF93BF93EF93FF93E0915C
:1035F0001A01F0911B010995FF91EF91BF91AF91D5
:103600009F918F917F916F915F914F913F912F91FA
:103610000F900FBE0F901F9018951F920F920FB62C
:103620000F9211242F933F934F935F936F937F9348
:103630008F939F93AF93BF93EF93FF93E091180104
:10364000F09119010995FF91EF91BF91AF919F9171
:103650008F917F916F915F914F913F912F910F903B
:103660000FBE0F901F9018951F920F920FB60F92DA
:1036700011242F933F934F935F936F937F938F9377
:103680009F93AF93BF93EF93FF93E0911601F09157
:1036900017010995FF91EF91BF91AF919F918F9184
:1036A0007F916F915F914F913F912F910F900FBE3E
:1036B0000F901F9018951F920F920FB60F92112422
:1036C0002F933F934F935F936F937F938F939F932A
:1036D000AF93BF93EF93FF93E0911401F091150125
:1036E0000995FF91EF91BF91AF919F918F917F913C
:1036F0006F915F914F913F912F910F900FBE0F905F
:103700001F901895CF93DF93EC0181E08C838D831C
:103710009E01265F3F4F3F832E831986188622ED38
:1037200031E0398328831C861B861E861D868F8781
:10373000888B81EC8A870E94C415FC0121818C81D1
:1037400090E0820F911D089774F5A281B3811097C4
:1037500019F4D383C2830CC018968D919C9119974C
:10376000009711F0DC01F8CF1996DC93CE931897EF
:1037700080818A8381818B8390818D81890F808371
:1037800080E09C81891778F4AE81BF81A80FB11DBC
:103790009C91A181B0E0AF5FBE4F9C9391819F5FF0
:1037A00091838F5FEECFDF91CF9108950F931F9399
:1037B000CF93DF931F92CDB7DEB78B0180914F0679
:1037C000811107C08EE396E00E94821B81E0809306
:1037D0004F0682E0898341E050E0BE016F5F7F4F7A
:1037E000809141060E94DA1897FD08C08091410639
:1037F00048E050E0B80180640E94DA180F90DF9131
:10380000CF911F910F910895DC01683810F068582E
:103810002DC0E62FF0E067FF11C0E058F10981E00C
:1038200090E001C0880FEA95EAF714969C911497EE
:10383000892B14968C93149760E018C0E156F84FCA
:103840006491611109C081E090E013969C938E937E
:10385000129780E090E0089567FF08C014968C915D
:103860001497826014968C9314976F7716968C91A8
:103870001697861751F117968C911797861729F18D
:1038800018968C911897861701F119968C911997B3
:103890008617D9F01A968C911A978617B1F01B9655
:1038A0008C911B97861789F0FD01369680E090E099
:1038B0002191211105C0FD01E80FF91F668305C0A4
:1038C000019686309105A1F7BECFCD01BD016C5F99
:1038D0007F4F0E94D61B81E090E00895EF92FF9207
:1038E0000F931F93CF938C01C62F0E94041C7C0161
:1038F000C83818F068E76C0F1FC0EC2FF0E0C7FF66
:103900000FC0E058F10921E030E001C0220FEA9534
:10391000EAF72095F80184812823248360E00CC015
:10392000E156F84F64916623D1F067FF05C0F801B6
:1039300084818D7F84836F77F801369686E06623D5
:1039400021F09081961301C010828150319681112F
:10395000F6CFB8016C5F7F4FC8010E94D61BC7012C
:103960009927CF911F910F91FF90EF900895AF92FB
:10397000BF92CF92DF92EF92FF920F931F93CF935C
:10398000DF931F92CDB7DEB75C017B018B016C0129
:1039900084E0C80ED11CF80161918F01C5016983D3
:1039A0000E944D376981681719F0C5010E9455378B
:1039B000FFEFAF1ABF0AAC14BD0469F7C7010F903F
:1039C000DF91CF911F910F91FF90EF90DF90CF90FB
:1039D000BF90AF900895CF92DF92EF92FF920F9336
:1039E0001F93CF93DF93EB017B0124E0E20EF11CE8
:1039F0008B016C01C61AD70AC601800F911F0E9465
:103A00004D37F80181938F01EE15FF05A9F7CE011F
:103A1000DF91CF911F910F91FF90EF90DF90CF90AA
:103A200008950C9455370C944D37EF92FF920F93F5
:103A30001F93CF93DF93442321F0873328F086E34D
:103A400003C08D3208F08CE270E06052710995E09D
:103A5000969F7001979FF00C112490E08B5C9D4F16
:103A600000E010E0502FDC011396EC0160E070E004
:103A7000FB01EE0DFF1DEC53FA4F249130E0052EB3
:103A800002C0359527950A94E2F7E22FE370F8E03B
:103A9000EF9F900111242E2B2171322F330F232BF6
:103AA000322F330F232B322F330F232B442319F0C4
:103AB0002883298308C0FD01339720833196208312
:103AC000319620832C936F5F7F4F2296149665303A
:103AD000710571F6805C9F4F0E5F1F4F0830110516
:103AE00009F0C0CFDF91CF911F910F91FF90EF9020
:103AF0000895CF93C1E0C0937503C093880580E318
:103B00008093E2050E94E7120E94D40780E1EFE56E
:103B1000F3E0DF011D928A95E9F71092DD0510921E
:103B2000DC051092840510923F031092440365E176
:103B300072E086E893E00E9436376AE172E085E839
:103B400094E00E94363784E0809385058093850455
:103B5000809386031092DE05109273031092DB05AA
:103B60001092DA05109287051092710310923D03AE
:103B700010923C031092350310923E03C0935A03F7
:103B80001092D6051092D7051092D8051092D9053B
:103B90001092D2051092D3051092D4051092D5053B
:103BA0001092CE051092CF051092D0051092D1053B
:103BB0001092CA051092CB051092CC051092CD053B
:103BC000109231021092320210923302109234029B
:103BD00082E490E090933703809336030E94D110E3
:103BE0000E94961960934A0370934B0380934C0391
:103BF00090934D036093460370934703809348036B
:103C000090934903CF91089590913D03992379F0C2
:103C10008B3241F08F3241F08A3341F08C3239F4EB
:103C200085E4089583E4089580E608958EE7089575
:103C300090918605992311F040E605C090EE980F0B
:103C40009F3538F4482F64E070E08BE390E00C94EB
:103C500065120895CF93DF9300D000D000D0CDB788
:103C6000DEB796E0EBEFF1E0DE01119601900D92E8
:103C70009A95E1F7843008F1209184059FEF299F00
:103C800090011124F901EA57FC4F90819817A8F090
:103C9000280F311DF901EA57FC4FE08180EE8E0FAD
:103CA000883558F4F0E0EE0FFF1FEC5EFC4F659195
:103CB0007491CE0101960E9446376FE172E0CE0109
:103CC00001960E942D37892B91F064E272E0CE01BB
:103CD00001960E942D37892B61F06AE272E0CE01D5
:103CE00001960E942D37892B31F080E005C081E0DC
:103CF00003C082E001C083E026960FB6F894DEBFD1
:103D00000FBECDBFDF91CF910895CF92DF92EF929A
:103D1000FF920F931F93CF93DF9300D000D000D07A
:103D2000CDB7DEB7E82E94E0C92EFF24FA9426E042
:103D3000D22E0C2D10E020918405F29E90011124CA
:103D4000F901EA57FC4F808190E0019708171907A5
:103D50000CF042C0EBEFF1E0DE0111968D2D0190E9
:103D60000D928A95E1F7200F311FF901EA57FC4FB8
:103D7000E08180EE8E0F893558F4F0E0EE0FFF1FE2
:103D8000EC5EFC4F65917491CE0101960E9446371E
:103D900064E272E0CE0101960E942D37892BD1F4A6
:103DA00080918405F89E000D111D1124F801E9573A
:103DB000FC4F80812091850530E023503109482F48
:103DC00050E04217530734F0EE2011F08F5F01C02E
:103DD00081508083C394ADCF26960FB6F894DEBF92
:103DE0000FBECDBFDF91CF911F910F91FF90EF904C
:103DF000DF90CF9008953F924F925F926F927F92A3
:103E00008F929F92AF92BF92CF92DF92EF92FF92EA
:103E10000F931F93CF93DF932B01782E692E342EAF
:103E2000442339F0812C912C20E8E22E3FE3F32E3D
:103E300003C04B01E82EF92EE4011E2D0F2D8EEF4D
:103E4000C82EDD24DA94AA24A394B12C20E030E01B
:103E5000A901BE01812F902F0E94A13487FF0CC0C1
:103E600025E93FEB46ED53EBBE01812F902F0E94D9
:103E7000A13487FD0DC05AC025E93FEB46ED53E361
:103E8000BE01812F902F0E94273618160CF04EC0CD
:103E900088E3C8168FEFD80609F448C0332079F0BC
:103EA000B5010B2C000C880B990B0E9450359B011F
:103EB000AC01B201872D962D0E94A6341DC081E071
:103EC00090E08C199D09C89EB001C99E700DD89EC6
:103ED000700D1124072E000C880B990B0E94503591
:103EE0009B01AC01B201872D962D0E94A634920150
:103EF000472D562D0E948C369B01AC01BE01812FAF
:103F0000902F0E948C36EB01182F092F9B01482F10
:103F1000592FB401C7010E9406344B017C018FEF79
:103F2000A81AB80A82E0C81AD10890CFB401C70114
:103F3000DF91CF911F910F91FF90EF90DF90CF9085
:103F4000BF90AF909F908F907F906F905F904F90B9
:103F50003F9008950E94443620E030E040E05FE367
:103F60000E948C3641E00C94FB1ECF93C82F60E07A
:103F700070E080E89FE3C7FF0AC0CF5FC13081F0E7
:103F800020E030E040E251E40E948C36F6CFC15090
:103F900078F020E030E040E251E40E948C36F7CF28
:103FA0009B01AC0160E070E080E89FE30E94A634D2
:103FB000CF91089548E050E067E673E083E693E030
:103FC0000C9410374CE050E06FE573E083E693E02B
:103FD0000C9410378F929F92AF92BF92CF92DF9244
:103FE000EF92FF920F931F93CF93DF9300D000D0F7
:103FF000CDB7DEB78F3231F481E0809371038093C7
:1040000088050BC1082F8D3219F40E94BF0504C02A
:104010008C3221F40E94600F81E0FFC080ED800FA0
:104020008A3008F06BC080915A038823B9F08091E0
:10403000DE05882319F01092DE0502C00E94E21FFF
:1040400010925F031092600310926103109262035A
:104050001092DD051092DB0510925A038091DB056A
:1040600010E0882351F19091DD0581E0890F809364
:10407000DD050E94B51F9B01AC01B80160537109B9
:10408000072E000C880B990B29833A834B835C83A2
:104090000E94503529813A814B815C810E94A6346F
:1040A0009B01AC0160915F0370916003809161039B
:1040B000909162030E940634A2C020E030E040E20A
:1040C00051E460915F03709160038091610390916E
:1040D00062030E948C366B017C01B801110F880BC2
:1040E000990B0E9450359B01AC01C701B6010E949B
:1040F000063420E030E040E452E469C00E32E9F4D6
:1041000080915A038823A9F08091DE05882319F055
:104110001092DE0502C00E94E21F10925F0310920F
:10412000600310926103109262031092DD051092F9
:104130005A0381E08093DB0572C00B3209F068C03E
:1041400080915A03882349F010925F031092600314
:10415000109261031092620362C08091DB05882394
:10416000E1F1C0905F03D0906003E0906103F090B4
:10417000620325E93FEB46ED53E3C701B6010E9418
:10418000273618163CF51091DD05112319F1812F02
:104190000E94B51F4B015C0111501093DD059B017E
:1041A000AC01C701B6010E948C360E9418352AE086
:1041B00030E040E050E00E94B2330E945035A5014B
:1041C00094010E94A6349B01AC01C701B6010E9474
:1041D000053415C01092DB0522C020E030E040E23B
:1041E00051E460915F03709160038091610390914D
:1041F00062030E94A6340E9418350E9450356093D5
:104200005F0370936003809361039093620307C020
:104210000E94E21F81E08093DE0580935A030F9095
:104220000F900F900F90DF91CF911F910F91FF9002
:10423000EF90DF90CF90BF90AF909F908F900895B8
:104240004FE050E067E773E086E793E00C941037A7
:104250008C3008F08BE022EE35E0F90140E29E2F31
:10426000921B981710F44193FACFE82FF0E0EE512B
:10427000FA4F108208951F93CF93DF93182F8AE08F
:104280000E94282186E48093E20582E58093E3057D
:1042900085E48093E4058093E5058AE38093E60551
:1042A000C2E4D0E0CE010E94131D882319F0C80F8C
:1042B000D11DF8CF2FEF39E02C1B3D0BC90168EE63
:1042C00073E00E947C33CB01EAE0F0E0BF010E9482
:1042D0007C3390E3980F9093E805C90164E670E0A1
:1042E0000E947C33CB01BF010E947C3390E3980F86
:1042F0009093E905C901BF010E947C33282FCB01AF
:10430000BF010E947C3390E3980F9093EA05205DF3
:104310002093EB05612F80E0DF91CF911F910C94EA
:1043200017228F929F92AF92BF92CF92DF92EF921D
:10433000FF920F931F93CF9385E00E9428218AE379
:104340008093E405C0908905D0908A05E0908B05A4
:10435000F0908C05C701B60120E031E545E252E05E
:104360000E949033211531054105510519F0205D5A
:104370002093E205C701B60120E83EEE46E350E097
:104380000E9490338AE0882E912CA12CB12CCA0176
:10439000B901A50194010E949033605D6093E3052B
:1043A000C701B60120E63AEE40E050E00E949033AB
:1043B000CA01B9012CE330E040E050E00E949033A4
:1043C000A50194010E949033205D2093E505605D76
:1043D0006093E60563E080E00E942A1102EE15E09A
:1043E000C1E0F80161918F0141E08C2F0E94151D01
:1043F000C35FC234B1F7CF911F910F91FF90EF903F
:10440000DF90CF90BF90AF909F908F90089563E022
:1044100080E00E942A11E2E5F3E06591749182EE5A
:1044200095E00E94463760E080E00C9417229F924E
:10443000AF92BF92CF92DF92EF92FF920F931F93B2
:10444000CF93DF93082FC62FE2EEF5E00190002016
:10445000E9F73197AF01425E5540942E842F880FC3
:10446000480F440F262F802F0E94051182EEA82EA0
:1044700085E0B82E6501E12CF12CD0E010E08C2D08
:104480008A19891588F48CE3E816F10469F0F601BD
:1044900041916F01BE01C701800F911F0E946512FB
:1044A000F6E0EF0EF11CEBCFDF91CF911F910F9152
:1044B000FF90EF90DF90CF90BF90AF909F900895C6
:1044C000CF92DF92EF92FF920F931F93CF93DF93E0
:1044D000C82FE2EEF5E001900020E9F73197E25EA7
:1044E000F5400E2F21E0280F4CE04E9F402D112467
:1044F000682F80E00E94051182EEC82E85E0D82E3C
:10450000E12CF12C10E0D0E0101778F4153069F0B0
:10451000F60141916F0120E0BE01C7010E94FF1129
:104520001F5FFCE0EF0EF11CEFCFDF91CF911F91E9
:104530000F91FF90EF90DF90CF900895FC01809154
:10454000E105811103C08FEF9FEF08959FB7F894A5
:1045500082E08093E9002091F20030E01216130609
:1045600014F421E030E02115310559F0289A84E651
:104570008093E0058091F10080838091F200882390
:1045800019F09FBFC90108958BE68093E800F9CF29
:10459000E7E5F6E0168217821086118612861386EA
:1045A00014826BE576E0CF010C94D61B0F931F931A
:1045B000CF93DF938C01C0E0D0E0F801EC0FFD1F3A
:1045C0006491662371F0E0915706F09158060190CE
:1045D000F081E02D87E596E00995892B11F0219671
:1045E000ECCFCE01DF91CF911F910F910895CF9322
:1045F000DF93CDB7DEB765970FB6F894DEBF0FBE79
:10460000CDBF789484B5826084BD84B5816084BD5B
:1046100085B5826085BD85B5816085BD80916E0060
:10462000816080936E001092810080918100826091
:1046300080938100809181008160809381008091CE
:1046400080008160809380008091910082608093DF
:104650009100809191008160809391008091900001
:104660008160809390008091C10084608093C1003C
:104670008091C10082608093C1008091C1008160FF
:104680008093C1008091C30081608093C3008091BA
:10469000C00082608093C0008091C20081608093DE
:1046A000C20080917A00846080937A0080917A00C1
:1046B000826080937A0080917A00816080937A0092
:1046C00080917A00806880937A001092E1051092C0
:1046D000300210922F028091D70081608093D70022
:1046E00080EA8093D80089B5806189BD89B58260F0
:1046F00089BD09B400FEFDCF61E070E080E090E08C
:104700000E94A0188091D8008F7C80618093D8008F
:104710008091E000807F8093E0008091E1008E7EB8
:104720008093E1008DE08093E200559A209A5D9895
:104730002898EEEFFFE7859194918B3F9C4D19F4FB
:1047400081E080932E0285B1806F85B984B1877E28
:1047500084B984B1876E84B95E9A5F988AB1806D9E
:104760008AB9769A6E9881B3806F81BB899880B33D
:104770008D7080BB80E58CBD81E08DBD0E941713DC
:1047800081E880936400809165008160809365007A
:1047900080916400826080936400809164008068EE
:1047A00080936400809164008860809364008091AD
:1047B00064008064809364008091650088608093C9
:1047C00065008091650081608093650084E6809338
:1047D000910582E10E944718892B49F40E94E71253
:1047E0000E94981260E089E00E947018FFCF80E07C
:1047F00090E00E94131D0E94EF1281E090E00E9461
:10480000131D80930001853018F485E0809300012A
:104810000E94791D10929A05F4E5EF2EF3E0FF2E29
:1048200010E006E0EBEFF1E0DE011196802F019041
:104830000D928A95E1F7F70165917491CE01019689
:104840000E94463762EF71E0CE0101960E942D373B
:10485000892B11F410939A051F5F32E0E30EF11CCF
:10486000183501F760E08BE00E947018E0E4EE2E4E
:10487000E3E0FE2E02E010E0C8010E94131DD70104
:104880008D937D010F5F1F4F06301105A9F723E0BF
:1048900042E460E080E00E94051140E061E480E0D5
:1048A0000E94151D40E06FE486E10E94151D40E066
:1048B00063E58CE20E94151D0E9498126FE573E07B
:1048C00086E090E00E94EB1C63E673E08AE090E0F3
:1048D0000E94EB1C67E673E08EE090E00E94EB1C08
:1048E0006BE673E082E190E00E94EB1C61E372E012
:1048F00086E190E00E94EB1C0E94E71260E273E008
:1049000080E090E00E94A0180E94D11072EE272E45
:1049100075E0372EB3E0B20DBF870E9496198091E3
:104920009405E62FE81B8E2F90919305992331F083
:10493000E0939205109293050C946E32909191053C
:10494000E91758F48F5F891710F00C946E3281E0EC
:1049500083BF889513BE0C946E3281E080939305DB
:104960006093940588E00E944718892B39F487E00A
:104970000E944718892B11F40C94783288E00E9429
:104980004718892B39F484E10E944718892B11F4C8
:104990000C947C320E94961980908D0590908E0523
:1049A000A0908F05B0909005DC01CB018819990982
:1049B000AA09BB0980319742A105B10588F1C090D1
:1049C0008905D0908A05E0908B05F0908C050E94B7
:1049D00096192AE3C21AD108E108F108C818D908C3
:1049E000EA08FB08DC01CB018C0D9D1DAE1DBF1D2F
:1049F0008093890590938A05A0938B05B0938C05CD
:104A00000E94961960938D0570938E0580938F0593
:104A10009093900580918805883011F40E9491212F
:104A20008091890590918A05A0918B05B0918C05A4
:104A300081159C45A642B54040F010928905109220
:104A40008A0510928B0510928C0588E00E94471809
:104A5000892BD9F087E00E944718892BC1F083E1A8
:104A60000E944718892BA9F085E10E944718892BDD
:104A700091F084E10E944718892B79F082E10E942D
:104A80004718892B61F010E00BC012E409C011E453
:104A900007C012E505C014E403C01CE401C015E51D
:104AA0008091990518130C9480320E949619C09039
:104AB0009505D0909605E0909705F0909805DC015B
:104AC000CB018C199D09AE09BF098B3F9105A1054A
:104AD000B10510F00C94803210E01093AA0580917B
:104AE00087058823C1F08EEE95E00E946B14892B18
:104AF00011F00C948E320FC02191022E000C330B5A
:104B00008217930709F44C9111962E2F201B2F1515
:104B100098F34093AA058091AA0590918605813467
:104B200029F481E089278093860509C0992339F00B
:104B3000882329F0805E8093AA05109286058091D3
:104B400088058A3009F0B7C0809185050E942A1E29
:104B5000813079F48093A905909185059093A805FB
:104B600094E09093850590918405891B809384053A
:104B700056C08230D1F4E0918405809185054FEFD5
:104B8000E49FF0011124EA57FC4FDF01A80FB11D8B
:104B900011968C91482F50E04D5F5F4F208130E09F
:104BA00042175307E4F58D5F38C08330C9F44FE0F6
:104BB00050E066E773E087E793E00E94103780914A
:104BC0008505E09184055FEFE59FF0011124EA5728
:104BD000FC4FE80FF11D9181909376038E5F1DC00D
:104BE00080918505E09184056FEFE69FF001112427
:104BF000E80FF11DEA57FC4FE08180EE8E0F8835FB
:104C000048F4F0E0EE0FFF1FE252FF4F0190F081F9
:104C1000E02D0995809185058F5F809385059091A2
:104C200084058FEF899FF0011124EA57FC4F3091E2
:104C300085052081321708F4E0C12091A9052223BF
:104C4000E9F051E0E52FE91BE09384051092A905F6
:104C50004091A805242F30E08E9FF0011124EA57DF
:104C6000FC4F808190E001972817390724F44F5FAB
:104C700040938505C2C150937503B9C180917303F8
:104C8000882311F08BE089C180917203882311F091
:104C90008CE083C180917103882311F082E001C010
:104CA00081E0809375031092A7051092710381E053
:104CB000809370039CC18B3009F090C080916F038A
:104CC00021E0280F20936F03213009F462C1609125
:104CD0005F037091600380916103909162032230C1
:104CE000B9F46093A3057093A4058093A5059093F0
:104CF000A60527E137EB41ED58E360915B03709126
:104D00005C0380915D0390915E030E94063439C17B
:104D100060939F057093A0058093A1059093A205D1
:104D2000C0905B03D0905C03E0905D03F0905E0365
:104D30002091A3053091A4054091A5055091A605A9
:104D40000E94A63420E030E040E85FE30E94053492
:104D50009B01AC0167E177EB81ED98E30E94A634FB
:104D60009B01AC01C701B6010E94053460935B034F
:104D700070935C0380935D0390935E0360935F0385
:104D800070936003809361039093620310926F03AA
:104D9000A70196010E9405346B017C0120E030E000
:104DA000A9010E94273618165CF427E137EB41ED84
:104DB00058E3C701B6010E94A13487FF1EC10BC092
:104DC00027E137EB41ED58EBC701B6010E942736CA
:104DD00018160CF012C11092730304C18C3009F044
:104DE0000CC160916F036F5F60936F03613009F4D2
:104DF000D0C0623059F520915F033091600340913B
:104E00006103509162036091560370915703809142
:104E10005803909159030E9406346093560370938F
:104E200057038093580390935903809152039091B4
:104E30005303A0915403B091550380935F03909363
:104E40006003A0936103B0936203A3C0633059F57C
:104E500020915F03309160034091610350916203A0
:104E600060915603709157038091580390915903B4
:104E70000E9406346093560370935703809358033F
:104E80009093590320914E0330914F03409150036A
:104E900050915103609152037091530380915403D8
:104EA0009091550364C0673108F07AC070E0635098
:104EB0007109072E000C880B990B0E94503520E0D9
:104EC00030E040E05FE30E948C366B017C0120E023
:104ED00030E040E850E460915F037091600380919E
:104EE0006103909162030E948C364B015C01C70103
:104EF000B6010E941835072E000C880B990B0E94F2
:104F000050359B01AC01C701B6010E94053420E079
:104F100030E040E05FE30E9406349B01AC01C50134
:104F2000B4010E948C369B01AC01609156037091D4
:104F3000570380915803909159030E94063460935F
:104F4000560370935703809358039093590320910D
:104F50004E0330914F0340915003509151036091A3
:104F60009B0570919C0580919D0590919E050E94E6
:104F7000063460939B0570939C0580939D059093E8
:104F80009E0560935F037093600380936103909329
:104F9000620384E0809385058AE0809388052DC0B4
:104FA00020914E0330914F03409150035091510393
:104FB0006091560370915703809158039091590363
:104FC0000E948C3620E030E040E450E40E94A63499
:104FD00060935F0370936003809361039093620317
:104FE0001092720381E080935A038093750385E0E9
:104FF0008093880583E0809374038091AA058823B9
:1050000009F4EDC50E94961960934A0370934B030F
:1050100080934C0390934D03609346037093470332
:10502000809348039093490380914503882321F09E
:10503000109245030E94391320918805213009F010
:1050400082C08091AA058234F9F4E09144038091F2
:105050009A05E81302C02093A705F0E0EE0FFF1FAA
:10506000E25EFE4F0190F081E02D099510928605D9
:1050700080917103882309F4B2C58091A70581113D
:10508000AEC5109271030BC0813459F48091710345
:10509000882309F4A0C5109271031092860582E05E
:1050A0009CC5823549F480914403873510F48F5FA5
:1050B0000AC01092440393C5843451F48091440390
:1050C000803520F4885F8093440389C587E5FBCF52
:1050D0008C3431F4809144038823C1F38150F3CFA1
:1050E000853531F480914403893018F38850EBCF33
:1050F000823619F40E94411372C5843608F46FC5D4
:10510000823719F4E09143030FC0843619F4E0911B
:1051100042030AC08C3619F4E091410305C085377B
:1051200009F05DC5E091400380EE8E0F883508F0F0
:1051300056C5F0E0EE0FFF1FE252FF4F0190F081E5
:10514000E02D09954CC5223009F03BC18091AA059C
:10515000823409F0B0C080917503833079F4609196
:105160003F0387E596E00E946E1C62E370E080E0FA
:1051700090E00E94A0180E94C82231C5863009F034
:1051800045C090913E03B0918505E0918405992337
:1051900089F16E2F70E0AFEFEA9FC0011124FC018E
:1051A000EA57FC4FA081AF5FA083BA1788F08FEF5A
:1051B000869FF001879FF00D1124EB0FF11DEA5738
:1051C000FC4F80913F03808381E00E94851E03C5D0
:1051D000AF012A2F30E0FA01E20FF31F319710815F
:1051E000280F391FF901EA57FC4F1083A150AB1368
:1051F000F0CFDDCF2FEFE29FF0011124EB0FF11D77
:10520000EA57FC4F90913F039083E7C48730E9F55C
:1052100080918405682F70E03FEF839FC0011124C7
:10522000FC01EA57FC4FA081AF3F49F1AF5FB0915D
:105230008505AF01BA1778F42A2F30E0FA01E20FA2
:10524000F31F31971081280F391FF901EA57FC4FDE
:105250001083A150EFCF8FEF869FF001879FF00D55
:105260001124AF014B0F511DDA01AA57BC4F809199
:105270003F038C93EA57FC4F80818F5F808363E00C
:1052800082E00E942A1187E0D3C380913D038823E6
:1052900029F080913F030E94EA1FA1C44FE050E033
:1052A00066E773E087E793E00E94103780913F0341
:1052B0008093760394C4813439F5109175031330CB
:1052C00009F48DC41730D9F280913D038823C9F0C9
:1052D00081E080935A0310923D0310923C0361E0F9
:1052E00080E00E942A11109286051A3011F01130C8
:1052F00019F41093880573C480917003809375032B
:105300006CC41093880596C3823569F480913F037D
:1053100090913B03891710F48F5F02C080913A038C
:1053200080933F035CC4843489F480913F0390915F
:105330003B0360913903482F50E0292F30E0261BB2
:1053400031094217530714F5860FEACF8C3459F40C
:1053500080913F0390913A03981710F48150E0CF69
:1053600080913B03DDCF8535A1F480913F0390917F
:105370003A0360913903482F50E0262F30E0290F7F
:10538000311D2417350714F4861BCACF90933F03B1
:1053900026C490917503933061F4823711F462E86A
:1053A00003C08C3631F460E887E596E00E94041C67
:1053B00016C481E080937503809388050E94D11004
:1053C0000EC4263009F0BCC08091AA05823431F5A4
:1053D00040918505809184053FEF389FC0011124DD
:1053E000FC01EA57FC4F5081451708F0A0C02093FC
:1053F000750322E02093880510923E03840F911DCF
:10540000FC01EA57FC4F808180933F0310923A03DE
:1054100030933B0380E180933903E1C3813409F485
:10542000DEC38235C9F480918505E09184055FEF84
:10543000E59FF0011124EA57FC4F9081482F50E07E
:10544000292F30E0245031094217530714F48C5FA0
:1054500014C090938505C3C3843491F4809185056D
:10546000E09184056FEFE69FF0011124EA57FC4FAD
:105470009081891708F0B3C38F5F80938505AFC310
:105480008C3441F480918505893010F08450F5CF3B
:1054900084E0F3CF853539F480918505853008F4B3
:1054A0009EC38150EACF823791F410923A038FEF76
:1054B00080933B0380E18093390386E080937503FA
:1054C00082E08093880581E080933E0388C38C3618
:1054D00071F560918505209184057FEF279F9001EC
:1054E0001124F901EA57FC4F80816817E0F48F011D
:1054F000862F90E0D8017C91472F50E04150510910
:105500008417950774F4A801480F591FDA01119602
:105510004C91820F931F8A579C4FDC014C936F5F15
:10552000E7CF7150708380E00E94851E58C361E010
:1055300080E00E942A11809170038093750378C2E5
:10554000273009F059C140918405242F30E0BFEF86
:105550004B9FF0011124EA57FC4FA081EFEF4E9FC3
:10556000A00111244A575C4F8091850560E070E0EE
:1055700094E0960F9A1758F4FA01E60FF71FE481AA
:10558000EB3709F0982F6F5F7F4F892FF1CF809312
:1055900085059091AA05923411F09237A1F490E21A
:1055A00090933A038EE780933B038AE0809339031C
:1055B00080913F0380528F3510F090933F0387E036
:1055C000809375036CCD913409F409C39235D9F4F5
:1055D00090E0B0E011978A179B070CF000C34FEFE3
:1055E000429FF001439FF00D1124DF01A80FB91F66
:1055F000AA57BC4F2C91E80FF91FE957FC4F808147
:105600008C932083ECC29434A1F59FEF929FA0016C
:10561000939F500D1124FA01E80FF11DEA57FC4F3A
:105620001081982F8A1758F4FA01EA0FF11DEA57F2
:10563000FC4F60816E3709F49A2FA150F3CF4FEFE2
:10564000429FB001439F700D1124DB01AA57BC4F4C
:10565000891708F062C0482F50E0FD01E40FF51FE4
:105660000181460F571FFA01EA57FC4F00838F5FF5
:10567000EFCF9C34C9F4853008F4B1C2E82FF0E0D4
:105680008FEF829FA001839F500D1124DA01AE0F8E
:10569000BF1FAA57BC4F8C91E40FF51FEB57FC4F6F
:1056A00090819C9380839BC2953509F042C09FEF07
:1056B000929FF001939FF00D1124E80FF11DEA571E
:1056C000FC4F1081982F60E070E0A4E0A60FA817AF
:1056D00050F4FA01E60FF71FE481EE3709F49A2F30
:1056E0006F5F7F4FF2CF4FEF429FB001439F700D2E
:1056F0001124DB01AA57BC4F981778F4482F50E0CB
:10570000FD01E40FF51F31970081460F571FFA0185
:10571000EA57FC4F00838150EFCF8FEF829FF0015B
:10572000839FF00D1124E90FF11DEA57FC4F108300
:1057300056C29C3609F5853008F451C29FEF929FFE
:10574000A001939F500D1124FA01EA57FC4F90815C
:10575000891778F4282F30E0DA01A20FB31FAA5777
:10576000BC4F9C912E0F3F1FD90111979C938F5FC7
:10577000EECF9150908333C280913803882359F043
:1057800080917003809375038093880563E080E0C7
:105790000E942A114FC174E08FEF829FA001839F66
:1057A000500D1124FA01EA57FC4F8081781740F719
:1057B000DA01A70FB11DAA57BC4F8C918B37D1F4DA
:1057C000172F812F90E06081262F30E02150310982
:1057D000821793076CF4DF01A80FB91F11962C9163
:1057E000840F951FDC01AA57BC4F2C931F5FE9CF94
:1057F000615060837F5FD9CF243009F01EC1809152
:10580000AA05823429F5D0903603109137038D2DE7
:10581000912F0E94131DC82E00918405ED2CF12EAE
:10582000FFEF0F9F800111240E191F098E2D8D1976
:105830008C1508F02DCEC7010E94131DF701E00F53
:10584000F11FEA57FC4F80832FEFE21AF20AEECFE6
:10585000813409F4C4C1823561F40091360310919A
:105860003703C8012B8B0E94131D2B8981117EC623
:10587000B6C1843489F40091360310913703C8010E
:105880000E94131D882309F4AAC1080F111D10934B
:10589000370300933603A3C18C34E1F4009136033F
:1058A0001091370332E4E32EF12CC7012B8B0E94B9
:1058B000131DA701480F511DCA012B89401751071D
:1058C00014F47C01F2CFF0923703E09236032150BA
:1058D00029F785C18535B1F400913603109137035E
:1058E00022E4E22EF12CC7010E94131D9701280F1C
:1058F000311D201731070CF043C6882309F440C638
:105900007901F1CF823709F068C002E410E0C801E4
:105910000E94131D882319F0080F111DF8CFE09184
:1059200084055FEFE59FF0011124EA57FC4F808169
:1059300090E02FEF39E0201B310B821793070CF01A
:1059400043C0080F191FFF24FA94E0918405FE9EBE
:10595000F0011124EA57FC4F808190E0209136033A
:1059600030913703280F391F021713076CF0B80165
:10597000681B790BCB010E94131D682FC8010E9480
:10598000111D01501109E1CF10E00FEF20918405A6
:10599000029F90011124F901EA57FC4F80811817EA
:1059A00008F01DC1812F90E0280F391FF901EA5737
:1059B000FC4F20913603309137036081820F931F93
:1059C0000E94111D1F5FE2CF84E08093750395E074
:1059D000909388058093740302C18C3639F5E0906A
:1059E0003603F0903703C7010E94131DC82ED12C37
:1059F00002E410E0C8010E94131D882319F0080F6B
:105A0000111DF8CF11270C191D090E151F050CF4D7
:105A1000E6C0C7018C0D9D1D0E94131D682FC70194
:105A20000E94111D7FEFE71AF70AEFCF80917003F4
:105A30008093880510928605D2C0283009F08FC067
:105A40001091AA05123429F56091890570918A0593
:105A500080918B0590918C0520E63AEE40E050E075
:105A60000E949033A0E6BAEE0E94E6336093890567
:105A700070938A0580938B0590938C050E949619EC
:105A800060938D0570938E0580938F05909390059C
:105A900059C0123569F48091890590918A05A091C9
:105AA0008B05B0918C05805A9541AF4FBF4F42C0D6
:105AB0001434E9F48091890590918A05A0918B05B1
:105AC000B0918C058138EEEE9E07E6E3AE07B10596
:105AD00028F080589E4EA643B1092CC0109289052B
